:100000000C9434000C943E000C943E000C943E0082
:100010000C943E000C943E000C943E000C943E0068
:100020000C943E000C943E000C943E000C943E0058
:100030000C943E000C9454000C943E000C943E0032
:100040000C943E000C943E000C943E000C943E0038
:100050000C943E000C943E000C943E000C943E0028
:100060000C943E000C943E0011241FBECFEFD8E04C
:10007000DEBFCDBF0E9440000C946A000C940000CB
:1000800080E284B91092800084E080938100109215
:10009000820081E080936F008CED9BE0909385005F
:1000A000809384007894FFCF1F920F920FB60F9227
:1000B00011248F939F9380E283B98CED9BE0909302
:1000C0008500809384009F918F910F900FBE0F90B9
:0800D0001F901895F894FFCF72
:00000001FF
