S01E000054696D6572456E436D6F646F435443706F6C6C696E672E7372656391
S11300000C9434000C943E000C943E000C943E007E
S11300100C943E000C943E000C943E000C943E0064
S11300200C943E000C943E000C943E000C943E0054
S11300300C943E000C943E000C943E000C943E0044
S11300400C943E000C943E000C943E000C943E0034
S11300500C943E000C943E000C943E000C943E0024
S11300600C943E000C943E0011241FBECFEFD8E048
S1130070DEBFCDBF0E9440000C9457000C940000DA
S113008080E284B9109280008CE080938100109209
S1130090820010926F0084E294EF90938900809321
S11300A0880080E2B19BFECF83B9B19AFBCFF8946C
S10500B0FFCF7C
S9030000FC
