:100000000C9434000C943E000C943E000C943E0082
:100010000C943E000C943E000C943E000C943E0068
:100020000C943E000C943E000C943E000C94540042
:100030000C943E000C943E000C943E000C943E0048
:100040000C943E000C943E000C943E000C943E0038
:100050000C943E000C943E000C943E000C943E0028
:100060000C943E000C943E0011241FBECFEFD8E04C
:10007000DEBFCDBF0E9440000C9462000C940000D3
:1000800080E284B9109280008CE08093810010920D
:10009000820082E080936F0084E294EF9093890065
:1000A000809388007894FFCF1F920F920FB60F9223
:1000B00011248F9380E283B98F910F900FBE0F9020
:0800C0001F901895F894FFCF82
:00000001FF
