:100000000C9434000C943E000C943E000C943E0082
:100010000C943E000C943E000C943E000C943E0068
:100020000C943E000C943E000C943E000C943E0058
:100030000C943E000C943E000C943E000C943E0048
:100040000C943E000C943E000C943E000C943E0038
:100050000C943E000C943E000C943E000C943E0028
:100060000C943E000C943E0011241FBECFEFD8E04C
:10007000DEBFCDBF0E9440000C945B000C940000DA
:1000800080E284B91092800084E080938100109215
:10009000820010926F008CED9BE09093850080931E
:1000A000840020E2E4E8F0E0B09BFECF23B9B09AF0
:0A00B00091838083F9CFF894FFCF0D
:00000001FF
